:020000040000FA
:020000001D28B9
:040002000034003492
:080008000528A300030E83127A
:10001000A4000B1D18280B11A90F1128AA0F1128D5
:10002000AB0AA21D18282A1D18282216A212A211F6
:10003000240E8300A30E230E090007309F00A0307A
:100040008B00831687308100F4308500F030860005
:100050008312A10185110519302805148510322855
:10006000051085143130AC003230AD003330AE00B5
:100070003430AF00A901AA01AB01CD2022104320EA
:06008000221893203D2828
:0A00860086013130A5003430A600D9
:100090003730A7002A30A80086147A20861022184C
:1000A00078283230A5003530A6003830A70030302F
:1000B000A80006157A200611221878283330A500EA
:1000C0003630A6003930A7002330A80086157A20E4
:1000D0008611221878284130A5004230A60043300E
:1000E000A7004430A80006147A200610221C08003D
:1000F0001B210800861F8028861B7C282508912844
:10010000061E8628061A822826089128861E8C2814
:10011000861A882827089128061F0800061B8E28A3
:100120002808221408003F212A306702031D9C285A
:10013000BA20A218221508003F2123306702031DB0
:100140000800221DAE286B08AC006C08AD006D08DD
:10015000AE006E08AF00A21022110800BA20A21C47
:100160000800211CB7282110A210A1150800211495
:10017000A1150800A2106B082C02031D08006C08D2
:100180002D02031D08006D082E02031D08006E08D5
:100190002F02031D0800A2140800051DD428A11C6D
:1001A000A115A1142112D828A118A115A11021165A
:1001B000A21AE428A21DDF28A216A115EA28211DF3
:1001C000EA28A216A115EA28A219EA282119EA2884
:1001D000A212A115211DF028851DA1158515F32852
:1001E0008519A1158511211C0529A1180529211999
:1001F0000529A2190129A2152212A216A901AA01F4
:10020000AB01221E05292115A211211E1129051459
:10021000A21A0C2985100800A91C080002308506C6
:1002200008008514A21A162905100800A91C080048
:10023000013085060800E7006908E8006A08E9005F
:100240006B08EA006C08EB006D08EC006E08ED002E
:100250006F08EE006708EF0008006F08E7006E08FF
:10026000EF006D08EE006C08ED006B08EC006A080A
:10027000EB006908EA006808E900670808006F08F1
:04028000E70008008B
:02400E00103F61
:00000001FF
