:020000040000FA
:020000001628C0
:040002000034003492
:080008000528A300030E83127A
:10001000A4000B1D11280B11A90F1128AA0F1128DC
:10002000AB0A240E8300A30E230E090007309F00A5
:10003000A0308B00831687308100F4308500F030CB
:1000400086008312851105192828051485102A2891
:10005000051085143130AC003230AD003330AE00C5
:100060003430AF00A101BD20221039202218892090
:02007000332833
:0E00720086013130A5003430A6003730A700DB
:100080002A30A80086147020861022186E2832307C
:10009000A5003530A6003830A7003030A80006157E
:1000A0007020061122186E283330A5003630A600C5
:1000B0003930A7002330A800861570208611221839
:1000C0006E284130A5004230A6004330A7004430DE
:1000D000A800061470200610221C08000221080047
:1000E000861F7628861B722825088728061E7C28EE
:1000F000061A782826088728861E8228861A7E28CF
:1001000027088728061F0800061B842828082214B1
:10011000080026212A306702031D9228AA20A2186F
:1001200022150800262123306702031D0800221D26
:10013000A4286B08AC006C08AD006D08AE006E081A
:10014000AF00A21022110800AA20A21C0800023051
:10015000A1060800A2106B082C02031D08006C0801
:100160002D02031D08006D082E02031D08006E08F5
:100170002F02031D0800A21408002119CC28A11C7D
:10018000DC282118D4280519D428A119D428211530
:10019000A901AA01AB01D428A11C21112118211108
:1001A00005192111A1192111211ADC28A11CDC2813
:1001B00021182116A1192116A11C2112211EE428A3
:1001C00021148515A111E62821108511A11CEE2806
:1001D0000519EE28211DEE282A19A115211DFA283E
:1001E000051DF728A91C01290130850601290230C7
:1001F00085060129051DFF28051085140129051410
:1002000085100800E7006908E8006A08E9006B0843
:10021000EA006C08EB006D08EC006E08ED006F085A
:10022000EE006708EF0008006F08E7006E08EF00B7
:100230006D08EE006C08ED006B08EC006A08EB003E
:100240006908EA006808E900670808006F08E70025
:020250000800A4
:02400E00103F61
:00000001FF
